:020000023000CC
:10FC000001C0F3C0112484B7882349F0982F9A705B
:10FC1000923029F081FF02C097EF94BF1ED185E09A
:10FC20008093810092E09093C00098E19093C1008E
:10FC300096E09093C2008093C4008FE0F9D0279A99
:10FC400026E08BE09AEF31E090938500809384006A
:10FC500036BBB09BFECF1F9AA8952150A9F7C0E0F4
:10FC6000D0E0DAD0813471F4D7D0182FE7D0123831
:10FC700011F482E005C0113811F486E001C083E080
:10FC8000C4D0B0C0823411F484E103C0853419F4C7
:10FC900085E0DCD0A7C0853579F4BED0C82FBCD0B4
:10FCA000D0E0D82B8BB7D7FF02C0816001C08E7F18
:10FCB0008BBFCC0FDD1F95C0863581F4ADD08D3460
:10FCC00049F4AAD01BB7A8D0880F1170812B8BBF25
:10FCD00081E001C083E0BAD080E0D2CF843609F061
:10FCE0004CC09AD0E82EF12CFE2CEE2495D0E82AB8
:10FCF00093D0B82E8701C12C32E0D32E8DD0F601DF
:10FD000081936F010150110901151105B9F796D0C2
:10FD1000F5E4BF1212C0EC0EFD1E8E01C12C92E064
:10FD2000D92E0E151F0509F45DC0F60161916F0112
:10FD3000C801A1D00F5F1F4FF4CF40E050E063E057
:10FD4000CE0153D000E010E0F801FE5F4081F801E1
:10FD5000EF5FFD4F808150E0582B61E0C8018C0FB0
:10FD60009D1F43D00E5F1F4FE016F10669F740E07C
:10FD700050E065E0CE0139D035C0843729F54CD04C
:10FD8000082F10E0102F002747D0082B45D0F82E61
:10FD900055D0F5E4FF120DC07E01C70164D035D007
:10FDA000015011098FEFE81AF80A01151105A9F79A
:10FDB00019C07E01F70187917F0127D001501109F9
:10FDC00001151105B9F70EC0853739F437D08EE12A
:10FDD0001CD088E91AD081E053CF813511F488E036
:10FDE00027D02CD080E111D03CCFFC010A0167BFA5
:10FDF000E895112407B600FCFDCF667029F0452B6D
:10FE000019F481E187BFE89508959091C00095FFAE
:10FE1000FCCF8093C60008958091C00087FFFCCF7F
:10FE20008091C00084FD01C0A8958091C60008950E
:10FE3000E0E6F0E098E1908380830895EDDF803282
:10FE400019F088E0F5DFFFCF84E1DFCFCF93C82F33
:10FE5000E3DFC150E9F7CF91F1CF282E80E0E8DF52
:10FE6000E0E0FF270994F999FECF92BD81BDF89A91
:10FE7000992780B50895262FF999FECF1FBA92BD14
:10FE800081BD20BD0FB6F894FA9AF99A0FBE01967B
:02FE90000895D3
:02FFFE000206F9
:040000033000FC00CD
:00000001FF
